:100000000C942A000C943F000C943F000C943F0089
:100010000C943F000C943F000C943F000C943F0064
:100020000C943F000C943F000C943F000C943F0054
:100030000C943F000C943F000C943F000C943F0044
:100040000C943F000C943F000C943F000C943F0034
:100050000C943F0011241FBECFE5D8E0DEBFCDBF1A
:1000600010E0A0E6B0E0ECEFFEE002C005900D92DB
:10007000A63EB107D9F70E940B040C947C070C94A0
:10008000000080E290E00E944D078F3F11F480E075
:10009000089581E00895EF92FF921F93CF93DF932D
:1000A0007C01C0E0D0E00BC0F701EC0FFD1F108118
:1000B000CE0181960E944D07181306C02196C430C8
:1000C000D10594F380E001C081E0DF91CF911F91D1
:1000D000FF90EF9008950F931F93CF93DF938C01C0
:1000E000C0E0D0E009C0F801EC0FFD1F6081CE0137
:1000F00081960E9441072196C430D105A4F368E699
:1001000080E290E00E944107DF91CF911F910F9113
:100110000895BF92CF92DF92EF92FF920F931F93B9
:10012000CF93DF9300D000D0CDB7DEB76C0119823A
:100130001A821B821C82FC018081882309F45FC023
:10014000813009F0D1C00E94DB0361E081E00E94B0
:10015000E50380E790E00E94CE03E12CF12C49C03A
:100160000E94AF02182FFFEF21EE84E0F1502040F3
:100170008040E1F700C000000CC00E94AF02182FC1
:100180009FEFE1EEF4E09150E040F040E1F700C075
:1001900000001F3F91F3113421F1E1E0F0E0EC0F9A
:1001A000FD1FEE0DFF1D108301E00E0D602F82E09C
:1001B0000E94E503812F0E94AA032FEF89E698E1B0
:1001C000215080409040E1F700C00000602F82E0A5
:1001D0000E94E5038AE20E94AA03EFEFEE1AFE0AEC
:1001E00008C06FEF80E290E00E944107F6011082A4
:1001F0007BC0F4E0EF16F1040CF4B2CF75C082E0DE
:10020000F60180830E94DB0361E081E00E94E50348
:1002100080E890E00E94CE03E12CF12CB12C4AC082
:100220000E94AF02182FFFEF21EE84E0F150204032
:100230008040E1F700C000000CC00E94AF02182F00
:100240009FEFE1EEF4E09150E040F040E1F700C0B4
:1002500000001F3F91F3113451F46FEF80E290E002
:100260000E944107F6011082BB24B39420C0E1E054
:10027000F0E0EC0FFD1FEE0DFF1D108301E00E0DF1
:10028000602F82E00E94E503812F0E94AA03FFEF06
:1002900029E688E1F15020408040E1F700C00000ED
:1002A000602F82E00E94E5038AE20E94AA039FEF8A
:1002B000E91AF90AE4E0EE16F1040CF4B1CFB1103A
:1002C00013C00E94DB0361E081E00E94E5038EE839
:1002D00090E00E94CE03FFEF2DE389E4F15020402F
:1002E0008040E1F700C0000080E090E00F900F90A8
:1002F0000F900F90DF91CF911F910F91FF90EF9092
:10030000DF90CF90BF900895CF93C62F882319F028
:100310008130E9F047C00E94DB0361E081E00E9488
:10032000E5038EE990E00E94CE0362E083E40E9440
:1003300003042FEF8DE399E4215080409040E1F7D2
:1003400000C0000062E083E40E9407042BC00E940A
:10035000DB0361E081E00E94E5038FEA90E00E9408
:10036000CE0361E082E00E94E5038BEB90E00E9407
:10037000CE036EE082E00E94E50380E38C0F0E94D2
:10038000AA0363E083E40E9403042FEF8DE399E462
:10039000215080409040E1F700C0000063E083E41A
:1003A0000E940704CF9108951F93CF93DF930E947B
:1003B000DB0361E081E00E94E50388EC90E00E94AD
:1003C000CE0361E082E00E94E50388ED90E00E94A8
:1003D000CE0363E083E40E94030461E070E083E401
:1003E00090E00E946E02CEE1D0E01CC06EE082E0A0
:1003F0000E94E503CE016AE070E00E945407182FC6
:1004000080E3860F0E94AA0380E3810F0E94AA0363
:100410002FEF89E698E1215080409040E1F700C03D
:10042000000021971C161D060CF363E083E40E9474
:10043000070461E070E083E490E00E947202DF91C3
:10044000CF911F910895CF93DF931F92CDB7DEB761
:100450000E945D030E94760261E070E083E490E018
:100460000E946A0262E083E40E94FF0363E083E487
:100470000E94FF0362E083E40E94070463E083E4D8
:100480000E94070412E00E9441008983CE01019678
:100490000E94890004C0CE0101960E948900298132
:1004A0002223C9F3223019F40E946B00ECCF0E9482
:1004B0004B00811105C0612F0E94840112E0E3CF3F
:1004C000115021F40E94D40112E0DDCF612F0E946F
:1004D0008401D9CF40E00E941004089541E00E94B9
:1004E0008004089540E00E948004089540E060E0A8
:1004F00084E40E94100440E061E084E40E9410045F
:1005000040E062E084E40E94100440E063E084E4A0
:100510000E94100441E064E084E40E94100441E081
:1005200065E084E40E94100441E066E084E40E94F7
:10053000100441E067E084E40E94100464E084E475
:100540000E940A0765E084E40E940A0766E084E4EA
:100550000E940A0767E084E40E940A070895CF9288
:10056000DF92EF92FF920F931F93CF93DF93CDB75C
:10057000DEB760970FB6F894DEBF0FBECDBF80E147
:10058000E0E6F0E0DE01119601900D928A95E1F728
:10059000C12CD12CFF24F394EE24EA943EC041E018
:1005A00060E084E40E94800441E061E084E40E9411
:1005B000800441E062E084E40E94800441E063E062
:1005C00084E40E94800440E06C2D84E40E94800456
:1005D00000E010E01AC064E0600F84E40E94F004C0
:1005E000F82E811110C0C601880F991F880F991F1E
:1005F00021E030E02C0F3D1F820F931FFC01E00F24
:10060000F11FE08005C00F5F1F4F043011051CF380
:10061000FF2041F03FEFC31AD30A84E0C816D1048B
:100620000CF4BDCF8E2D60960FB6F894DEBF0FBED2
:10063000CDBFDF91CF911F910F91FF90EF90DF9091
:10064000CF90089541E060E082E40E94800483EF4F
:1006500091E00197F1F700C0000040E060E082E423
:100660000E94800483EF91E00197F1F700C0000041
:100670000895CF93C82F482F42954F7060E081E4D2
:100680000E94B70640E062E082E40E9480040E947B
:1006900022034C2F60E081E40E94B70640E062E054
:1006A00082E40E9480040E94220389EF90E0019777
:1006B000F1F700C00000CF9108958FE493EC01970B
:1006C000F1F700C0000040E060E081E40E944D05C9
:1006D00040E060E082E40E94100440E061E082E4D7
:1006E0000E94100440E062E082E40E94100440E0B6
:1006F00061E082E40E94800482E00E94390383EC7E
:1007000099E00197F1F700C0000088E20E943903E8
:1007100089EF90E00197F1F700C000008EE00E94A1
:10072000390389EF90E00197F1F700C0000081E004
:100730000E94390383EC99E00197F1F700C00000B3
:1007400086E00E94390389EF90E00197F1F700C03D
:1007500000000895CF93C82F482F42954F7060E056
:1007600081E40E94B70641E062E082E40E948004D6
:100770000E9422034C2F60E081E40E94B70641E012
:1007800062E082E40E9480040E94220389EF90E0EC
:100790000197F1F700C00000CF910895CF93DF9348
:1007A000EC0103C00E94AA03219688818111FACF2F
:1007B000DF91CF91089581E00E94390383EC99E0A5
:1007C0000197F1F700C0000008959FEF980F923055
:1007D00078F4662369F0613158F4813029F48FE7A9
:1007E000860F0E94390304C08FEB860F0E943903E5
:1007F00089EF90E00197F1F700C00000089540E014
:100800000E941004089541E00E948004089540E091
:100810000E94800408950E94230280E090E00895E1
:10082000823419F118F4813439F008958334B1F128
:10083000843409F44CC0089541110BC02AB381E0FF
:1008400090E002C0880F991F6A95E2F7822B8ABB5D
:1008500008952AB381E090E002C0880F991F6A953D
:10086000E2F7809582238ABB089541110BC027B31C
:1008700081E090E002C0880F991F6A95E2F7822B11
:1008800087BB089527B381E090E002C0880F991FCD
:100890006A95E2F78095822387BB089541110BC0CA
:1008A00024B381E090E002C0880F991F6A95E2F7B7
:1008B000822B84BB089524B381E090E002C0880FAE
:1008C000991F6A95E2F78095822384BB08954111B0
:1008D0000BC021B381E090E002C0880F991F6A9598
:1008E000E2F7822B81BB089521B381E090E002C042
:1008F000880F991F6A95E2F78095822381BB08953E
:10090000823419F118F4813439F008958334B1F147
:10091000843409F44CC00895413059F42BB381E07C
:1009200090E002C0880F991F6A95E2F7822B8BBB7B
:1009300008952BB381E090E002C0880F991F6A955B
:10094000E2F7809582238BBB0895413059F428B398
:1009500081E090E002C0880F991F6A95E2F7822B30
:1009600088BB089528B381E090E002C0880F991FEA
:100970006A95E2F78095822388BB0895413059F447
:1009800025B381E090E002C0880F991F6A95E2F7D5
:10099000822B85BB089525B381E090E002C0880FCB
:1009A000991F6A95E2F78095822385BB08954130AF
:1009B00059F422B381E090E002C0880F991F6A9534
:1009C000E2F7822B82BB089522B381E090E002C05F
:1009D000880F991F6A95E2F78095822382BB08955C
:1009E0008234E9F018F4813431F055C0833459F180
:1009F0008434E9F150C049B381E090E09C01062EB7
:100A000002C0220F331F0A94E2F7842F90E0822362
:100A1000932302C0959587956A95E2F7089546B3AA
:100A200081E090E09C01062E02C0220F331F0A9441
:100A3000E2F7842F90E08223932302C09595879557
:100A40006A95E2F7089543B381E090E09C01062E99
:100A500002C0220F331F0A94E2F7842F90E0822312
:100A6000932302C0959587956A95E2F7089540B360
:100A700081E090E09C01062E02C0220F331F0A94F1
:100A8000E2F7842F90E08223932302C09595879507
:100A90006A95E2F7089580E00895823409F462C00F
:100AA00018F4813441F00895833409F4B2C08434D9
:100AB00009F406C1089561112AC0411113C081E4EF
:100AC0000E94100440E061E081E40E94100440E0D4
:100AD00062E081E40E94100440E063E081E40E944F
:100AE0001004089541E060E081E40E94100441E0B8
:100AF00061E081E40E94100441E062E081E40E9430
:100B0000100441E063E081E40E9410040895411163
:100B100014C064E081E40E94100440E065E081E4D8
:100B20000E94100440E066E081E40E94100440E06E
:100B300067E081E40E941004089541E064E081E4EC
:100B40000E94100441E065E081E40E94100441E04D
:100B500066E081E40E94100441E067E081E40E94C5
:100B60001004089561112AC0411113C082E40E944B
:100B7000100440E061E082E40E94100440E062E082
:100B800082E40E94100440E063E082E40E941004CA
:100B9000089541E060E082E40E94100441E061E0D9
:100BA00082E40E94100441E062E082E40E941004AA
:100BB00041E063E082E40E9410040895411114C0F2
:100BC00064E082E40E94100440E065E082E40E9458
:100BD000100440E066E082E40E94100440E067E018
:100BE00082E40E941004089541E064E082E40E94DF
:100BF000100441E065E082E40E94100441E066E0F8
:100C000082E40E94100441E067E082E40E94100444
:100C1000089561112AC0411113C083E40E94100499
:100C200040E061E083E40E94100440E062E083E47D
:100C30000E94100440E063E083E40E9410040895E1
:100C400041E060E083E40E94100441E061E083E45D
:100C50000E94100441E062E083E40E94100441E03D
:100C600063E083E40E9410040895411114C064E01D
:100C700083E40E94100440E065E083E40E941004D5
:100C800040E066E083E40E94100440E067E083E413
:100C90000E941004089541E064E083E40E9410047F
:100CA00041E065E083E40E94100441E066E083E4F3
:100CB0000E94100441E067E083E40E94100408955C
:100CC00061112AC0411113C084E40E94100440E065
:100CD00061E084E40E94100440E062E084E40E9449
:100CE000100440E063E084E40E941004089541E0B1
:100CF00060E084E40E94100441E061E084E40E942A
:100D0000100441E062E084E40E94100441E063E0EA
:100D100084E40E9410040895411114C064E084E446
:100D20000E94100440E065E084E40E94100440E06A
:100D300066E084E40E94100440E067E084E40E94DE
:100D40001004089541E064E084E40E94100441E04E
:100D500065E084E40E94100441E066E084E40E94BF
:100D6000100441E067E084E40E9410040895823496
:100D7000D9F018F4813431F00895833439F1843492
:100D8000B9F10895611107C08BB3807F8BBB8BB322
:100D9000482B4BBB08954295407F8BB38F708BBB24
:100DA0008BB3482B4BBB0895611107C088B3807F7C
:100DB00088BB88B3482B48BB08954295407F88B3D1
:100DC0008F7088BB88B3482B48BB0895611107C05A
:100DD00085B3807F85BB85B3482B45BB089542957D
:100DE000407F85B38F7085BB85B3482B45BB089585
:100DF000611107C082B3807F82BB82B3482B42BBA4
:100E000008954295407F82B38F7082BB82B3482B96
:100E100042BB08958234A1F018F4813431F0089572
:100E20008334C9F0843411F108952BB381E090E04C
:100E300002C0880F991F6A95E2F7822B8BBB089539
:100E400028B381E090E002C0880F991F6A95E2F70D
:100E5000822B88BB089525B381E090E002C0880F03
:100E6000991F6A95E2F7822B85BB089522B381E032
:100E700090E002C0880F991F6A95E2F7822B82BB2F
:100E800008959FBB8EBB6DBB8CB384608CBB8CB351
:100E900082608CBBE199FECF08959FBB8EBB8CB363
:100EA00081608CBB8DB3089597FB072E16F40094D8
:100EB00007D077FD09D00E94680707FC05D03EF4F3
:100EC000909581959F4F0895709561957F4F0895F6
:100ED000AA1BBB1B51E107C0AA1FBB1FA617B70760
:100EE00010F0A61BB70B881F991F5A95A9F780957C
:0C0EF0009095BC01CD010895F894FFCF4F
:100EFC003738392F3435362A3132332D41303D2BAA
:100F0C00636865636B2050617373776F72643A002A
:100F1C005365742050617373776F72643A0050613B
:100F2C007373776F72642069732073657400436FF9
:100F3C0072726563742050617373776F7264004EC4
:100F4C006F7420436F727265637400547269616CC4
:100F5C0073204C6566743A00596F75204172652098
:100F6C00426C6F636B65640054696D65204C6566FB
:060F7C00742873293A00FD
:00000001FF
